S01300006C65645F646973706C61792E7372656387
S113000019C028C027C026C025C024C023C022C0D0
S113001021C020C01FC01EC01DC01CC01BC01AC0F0
S11300207CC018C017C016C015C014C013C012C0BD
S113003011C010C011241FBECFEFD4E0DEBFCDBF6E
S113004024E0A0E0B1E001C01D92A436B207E1F7BC
S113005089D1ABC1D5CFCF9381E052D181E069D1B1
S1130060C9E08AEF90E041D1C150D9F7CF9108950A
S1130070CF93DF93A1E0B1E0EFE6F1E081E691E018
S1130080ED0121971882EF012F971882EF012E9727
S11300901882EF012D971882EF012C971882EF0137
S11300A02B971882EF012A971882EF01299718825B
S11300B0EF01289718821C92EF0127971882EF010D
S11300C026971882EF0125971882EF01249718824A
S11300D0EF0123971882EF0122971882EF012197ED
S11300E01882108212967096A817B90749F61092D2
S11300F0600410926104109263041092620416BCAE
S113010081E085BD80936E009FEF9BB99AB915B8C5
S113011084B97894DF91CF9108951F920F920FB60E
S11301200F9211242F933F934F935F936F937F9379
S11301308F939F93AF93BF93EF93FF93809160044A
S1130140823070F58091610485B9409160044695D0
S113015050E0440F551F480F511D20916204309107
S11301606304ABEABAEA15D10024880F991F001C76
S1130170880F991F001C892F902DFA01EE0FFF1F85
S1130180EE0FFF1FEE0FFF1FE80FF91FE05AFE4F9F
S1130190DA01A050BF4F90818C91892B8BB905C097
S11301A08091610485B98FEF8BB9809161048F5F71
S11301B0817080936104809160048F5F9BEA899FC2
S11301C0912D1124929596959695937020E6929F81
S11301D080191124809360048091620490916304D7
S11301E0019660E073E0C1D090936304809362044D
S11301F0FF91EF91BF91AF919F918F917F916F91FB
S11302005F914F913F912F910F900FBE0F901F90D0
S113021018958033C0F59031B0F56623D9F0E82FF6
S1130220F0E0892F869586958695EE0FFF1FE80FDF
S1130230F11DE050FF4F977021E030E0A90102C0AA
S1130240440F551F9A95E2F7CA018095908189233E
S113025080830895E82FF0E0892F8695869586950A
S1130260EE0FFF1FE80FF11DE050FF4F977021E0E4
S113027030E0A90102C0440F551F9A95E2F7CA0164
S11302809081892B80830895803370F5903160F5D7
S1130290492F477021E030E002C0220F331F4A95F6
S11302A0E2F7322F3095E82FF0E0EE0FFF1F96951E
S11302B096959695E90FF11DEE0FFF1FEE0FFF1FA8
S11302C0EE0FFF1FE05AFE4FDF0181E0681720F0B8
S11302D090819323908303C09C91922B9C938F5F76
S11302E031961196893091F70895009741F0EFEC1B
S11302F0F7E03197F1F700C000000197C1F70895C6
S11303000F931F93CF93DF93182FD0E000E00AC020
S1130310612F8D2F9C2F7DDFCF5FC031C9F7DF5F49
S1130320D03311F0C02FF4CFDF91CF911F910F91F3
S113033008950F931F93CF93DF93182FD0E000E01D
S11303400AC0612F8D2F9C2F9FDFCF5FC031C9F76B
S1130350DF5FD03311F0C02FF4CFDF91CF911F9125
S11303600F91089585DE77DEFECFAA1BBB1B51E1FA
S113037007C0AA1FBB1FA617B70710F0A61BB70B11
S1130380881F991F5A95A9F780959095BC01CD01B6
S11303900895A29FB001B39FC001A39F01D0B29F53
S11103A0700D811D1124911D0895F894FFCF56
S9030000FC
