:1000000019C028C027C026C025C024C023C022C0D4
:1000100021C020C01FC01EC01DC01CC01BC01AC0F4
:100020004BC018C017C016C015C014C013C012C0F2
:1000300011C010C011241FBECFEFD4E0DEBFCDBF72
:1000400021E0A0E0B1E001C01D92A336B207E1F7C4
:1000500002D104C1D5CFCF93C091000180E0E2D09E
:1000600061E080E09C2F98D084E690E0D0D0809131
:1000700000018F5F8F7080930001CF910895E2E0BF
:10008000F1E082E691E0DF0111971C921082329636
:10009000E817F907C1F7109261011092620116BCCE
:1000A00082E085BD81E080936E009FEF9BB99AB995
:1000B00015B884B9789408951F920F920FB60F92D5
:1000C00011242F933F934F938F939F93EF93FF931D
:1000D0008FEF8BB980916101811122C090916201F3
:1000E0008BEA989F912D112492959695977095B9CA
:1000F00025E52A95F1F70000E0916101F0E090918B
:100100006201989F812D1124829586958770EE0F4C
:10011000FF1FE80FF11DEF5FFE4F80818BB910C00C
:10012000909162018BEA989F812D1124829586958A
:10013000877085B945E54A95F1F700008FEF8BB9D7
:10014000809162018F5F209161012F5F9BEA299F5F
:10015000312D112432953695377040E3349F2019A4
:10016000112420936101899F912D112492959695D8
:100170009695937020E6929F8019112480936201D6
:10018000FF91EF919F918F914F913F912F910F9000
:100190000FBE0F901F9018958033C0F59031B0F5C9
:1001A0006623D9F0E82FF0E0892F8695869586950D
:1001B000EE0FFF1FE80FF11DEF5FFE4F977021E07C
:1001C00030E0A90102C0440F551F9A95E2F7CA0119
:1001D00080959081892380830895E82FF0E0892F0E
:1001E000869586958695EE0FFF1FE80FF11DEF5F50
:1001F000FE4F977021E030E0A90102C0440F551F67
:100200009A95E2F7CA019081892B8083089500971F
:1002100041F0EFECF7E03197F1F700C000000197F3
:10022000C1F708950F931F93CF93DF93182FD0E05A
:1002300000E00AC0612F8D2F9C2FAEDFCF5FC03151
:10024000C9F7DF5FD03311F0C02FF4CFDF91CF912A
:100250001F910F91089513DFFEDEFECFF894FFCFBC
:00000001FF
