S01300006C65645F646973706C61792E7372656387
S113000019C028C027C026C025C024C023C022C0D0
S113001021C020C01FC01EC01DC01CC01BC01AC0F0
S113002059C018C017C016C015C014C013C012C0E0
S113003011C010C011241FBECFEFD4E0DEBFCDBF6E
S113004024E0A0E0B1E001C01D92A236B207E1F7BE
S1130050E4D0E6C0D5CF81E0C7D08AEF90E0B9D034
S113006080E0C2D08AEF90E0B4D00895CF93DF93BC
S1130070E0E6F1E0A1E0B1E080E694E0ED01219753
S113008018821082118212821382148215821682BF
S113009017821C9210861186128613861486158682
S11300A01686178670961296E817F90739F7109294
S11300B060041092610416BC82E085BD81E08093E7
S11300C06E009FEF9BB99AB915B884B97894DF9103
S11300D0CF9108951F920F920FB60F9211242F9370
S11300E08F939F93EF93FF9380916004823080F409
S11300F08091610485B9E0916004E695F0E0EE0F2B
S1130100FF1FE80FF11DE050FF4F80818BB905C040
S11301108091610485B98FEF8BB9809160048F5F02
S1130120909161049F5F9170909361049BEA899F11
S1130130912D1124929596959695937020E6929F11
S11301408019112480936004FF91EF919F918F9106
S11301502F910F900FBE0F901F9018958033C0F50C
S11301609031B0F56623D9F0E82FF0E0892F869519
S113017086958695EE0FFF1FE80FF11DE050FF4FA7
S1130180977021E030E0A90102C0440F551F9A95F1
S1130190E2F7CA0180959081892380830895E82F2E
S11301A0F0E0892F869586958695EE0FFF1FE80F60
S11301B0F11DE050FF4F977021E030E0A90102C02B
S11301C0440F551F9A95E2F7CA019081892B8083C9
S11301D00895009741F0EFECF7E03197F1F700C094
S11301E000000197C1F708950F931F93CF93DF93F6
S11301F0182FD0E000E00AC0612F8D2F9C2FAEDFB6
S1130200CF5FC031C9F7DF5FD03311F0C02FF4CF17
S1130210DF91CF911F910F91089528DF1CDFFECF4E
S1070220F894FFCF7C
S9030000FC
