:1000000019C028C027C026C025C024C023C022C0D4
:1000100021C020C01FC01EC01DC01CC01BC01AC0F4
:1000200055C018C017C016C015C014C013C012C0E8
:1000300011C010C011241FBECFEFD4E0DEBFCDBF72
:1000400021E0A0E0B1E001C01D92A236B207E1F7C5
:100050000AD10DC1D5CF81E0EDD088EC90E0DFD0A2
:1000600080E0E8D088EC90E0DAD00895CF93DF9379
:10007000D0E0C0E080E0DED061E08D2F9C2F94D0F6
:1000800082E390E0CCD0CF5FC031A1F7DF91CF9178
:100090000895E1E0F1E081E691E0DF0111971C9223
:1000A00010823296E817F907C1F71092600110929A
:1000B000610116BC82E085BD81E080936E009FEFF8
:1000C0009BB99AB915B884B9789408951F920F9284
:1000D0000FB60F9211242F933F934F938F939F93BB
:1000E000EF93FF938FEF8BB980916001811121C055
:1000F000909161018BEA989F912D1124929596958C
:10010000977095B920E62A95F1F7E0916001F0E04B
:1001100090916101989F812D112482958695877019
:10012000EE0FFF1FE80FF11DE050FF4F80818BB9EC
:100130000FC0909161018BEA989F812D11248295C7
:100140008695877085B940E64A95F1F78FEF8BB9B0
:10015000809161018F5F209160012F5F9BEA299F51
:10016000312D112432953695377040E3349F201994
:10017000112420936001899F912D112492959695C9
:100180009695937020E6929F8019112480936101C7
:10019000FF91EF919F918F914F913F912F910F90F0
:1001A0000FBE0F901F9018958033C0F59031B0F5B9
:1001B0006623D9F0E82FF0E0892F869586958695FD
:1001C000EE0FFF1FE80FF11DE050FF4F977021E089
:1001D00030E0A90102C0440F551F9A95E2F7CA0109
:1001E00080959081892380830895E82FF0E0892FFE
:1001F000869586958695EE0FFF1FE80FF11DE0505E
:10020000FF4F977021E030E0A90102C0440F551F55
:100210009A95E2F7CA019081892B8083089500970F
:1002200041F0EFECF7E03197F1F700C000000197E3
:10023000C1F708950F931F93CF93DF93182FD0E04A
:1002400000E00AC0612F8D2F9C2FAEDFCF5FC03141
:10025000C9F7DF5FD03311F0C02FF4CFDF91CF911A
:100260001F910F91089515DFF6DE00DFFDCFF894A2
:02027000FFCFBE
:00000001FF
