S01300006C65645F646973706C61792E7372656387
S113000019C028C027C026C025C024C023C022C0D0
S113001021C020C01FC01EC01DC01CC01BC01AC0F0
S113002060C018C017C016C015C014C013C012C0D9
S113003011C010C011241FBECFEFD4E0DEBFCDBF6E
S113004021E0A0E0B1E001C01D92A631B207E1F7C2
S113005023D125C1D5CFCF9381E002D1C0E08C2F2D
S11300600DD18AEF90E0F1D0CF5FC930C1F7CF91C5
S1130070089510920001109202011092030110924F
S113008004011092050110920601109207011092CA
S11300900801109209011092010110920A011092B4
S11300A00B0110920C0110920D0110920E0110928E
S11300B00F0110921001109211011092120110926E
S11300C01301109215011092140116BC81E085BD34
S11300D080936E009FEF9BB99AB915B884B9789450
S11300E008951F920F920FB60F9211242F933F93EE
S11300F04F935F936F937F938F939F93AF93BF932C
S1130100EF93FF936091130165B970911201272F4A
S1130110269530E0220F331F260F311D80911401E4
S113012090911501AC0156954795F901EE0FFF1F0B
S1130130EE0FFF1FEE0FFF1FE40FF51FEE5FFE4FE4
S1130140D901A050BF4F40812C91242B2BB97F5F44
S11301507170709312016F5F617060931301019667
S11301608F7099279093150180931401FF91EF915B
S1130170BF91AF919F918F917F916F915F914F91BB
S11301803F912F910F900FBE0F901F9018958111E2
S11301902EC0903160F56623B1F0E92FE695E6951F
S11301A0E695F0E0E050FF4F977021E030E0A901C0
S11301B002C0440F551F9A95E2F7CA0180959081B9
S11301C0892380830895E92FE695E695E695F0E086
S11301D0E050FF4F977021E030E0A90102C0440FC6
S11301E0551F9A95E2F7CA019081892B808308955F
S11301F0492F477021E030E002C0220F331F4A9597
S1130200E2F7322F3095E82FF0E0EE0FFF1F9695BE
S113021096959695E90FF11DEE0FFF1FEE0FFF1F48
S1130220EE0FFF1FEE5FFE4FDF0181E0681720F045
S113023090819323908303C09C91922B9C938F5F16
S113024031961196893091F70895009741F0EFECBB
S1130250F7E03197F1F700C000000197C1F7089566
S1130260CF93DF93D82FC0E06D2F80E09C2F8FDFDA
S1130270CF5FC031C9F7DF91CF910895CF93DF935A
S1130280D82FC0E06D2F80E09C2FB2DFCF5FC0314C
S1130290C9F7DF91CF910895ECDEDDDEFECFF8944F
S10502A0FFCF8A
S9030000FC
